{
  "contractName": "Event",
  "abi": [
    {
      "constant": true,
      "inputs": [
        {
          "name": "",
          "type": "uint256"
        }
      ],
      "name": "events",
      "outputs": [
        {
          "name": "name",
          "type": "string"
        },
        {
          "name": "price",
          "type": "uint256"
        },
        {
          "name": "totalTickets",
          "type": "uint256"
        },
        {
          "name": "remainingTickets",
          "type": "uint256"
        },
        {
          "name": "owner",
          "type": "address"
        }
      ],
      "payable": false,
      "stateMutability": "view",
      "type": "function"
    },
    {
      "constant": true,
      "inputs": [],
      "name": "ticketAddress",
      "outputs": [
        {
          "name": "",
          "type": "address"
        }
      ],
      "payable": false,
      "stateMutability": "view",
      "type": "function"
    },
    {
      "constant": false,
      "inputs": [],
      "name": "renounceOwnership",
      "outputs": [],
      "payable": false,
      "stateMutability": "nonpayable",
      "type": "function"
    },
    {
      "constant": true,
      "inputs": [],
      "name": "owner",
      "outputs": [
        {
          "name": "",
          "type": "address"
        }
      ],
      "payable": false,
      "stateMutability": "view",
      "type": "function"
    },
    {
      "constant": false,
      "inputs": [
        {
          "name": "_newOwner",
          "type": "address"
        }
      ],
      "name": "transferOwnership",
      "outputs": [],
      "payable": false,
      "stateMutability": "nonpayable",
      "type": "function"
    },
    {
      "inputs": [
        {
          "name": "_ticketAddress",
          "type": "address"
        }
      ],
      "payable": false,
      "stateMutability": "nonpayable",
      "type": "constructor"
    },
    {
      "anonymous": false,
      "inputs": [
        {
          "indexed": true,
          "name": "eventId",
          "type": "uint256"
        },
        {
          "indexed": true,
          "name": "creator",
          "type": "address"
        }
      ],
      "name": "EventCreated",
      "type": "event"
    },
    {
      "anonymous": false,
      "inputs": [
        {
          "indexed": true,
          "name": "ticketId",
          "type": "uint256"
        },
        {
          "indexed": true,
          "name": "buyer",
          "type": "address"
        }
      ],
      "name": "BoughtTicket",
      "type": "event"
    },
    {
      "anonymous": false,
      "inputs": [
        {
          "indexed": true,
          "name": "ticketId",
          "type": "uint256"
        }
      ],
      "name": "RedeemedTicket",
      "type": "event"
    },
    {
      "anonymous": false,
      "inputs": [
        {
          "indexed": true,
          "name": "previousOwner",
          "type": "address"
        }
      ],
      "name": "OwnershipRenounced",
      "type": "event"
    },
    {
      "anonymous": false,
      "inputs": [
        {
          "indexed": true,
          "name": "previousOwner",
          "type": "address"
        },
        {
          "indexed": true,
          "name": "newOwner",
          "type": "address"
        }
      ],
      "name": "OwnershipTransferred",
      "type": "event"
    },
    {
      "constant": false,
      "inputs": [],
      "name": "toggleEmergencyStop",
      "outputs": [],
      "payable": false,
      "stateMutability": "nonpayable",
      "type": "function"
    },
    {
      "constant": false,
      "inputs": [
        {
          "name": "_ticketAddress",
          "type": "address"
        }
      ],
      "name": "updateTicketAddress",
      "outputs": [],
      "payable": false,
      "stateMutability": "nonpayable",
      "type": "function"
    },
    {
      "constant": false,
      "inputs": [
        {
          "name": "name",
          "type": "string"
        },
        {
          "name": "price",
          "type": "uint256"
        },
        {
          "name": "totalTickets",
          "type": "uint256"
        }
      ],
      "name": "createEvent",
      "outputs": [
        {
          "name": "",
          "type": "uint256"
        }
      ],
      "payable": false,
      "stateMutability": "nonpayable",
      "type": "function"
    },
    {
      "constant": false,
      "inputs": [
        {
          "name": "eventId",
          "type": "uint256"
        }
      ],
      "name": "buyTicket",
      "outputs": [
        {
          "name": "",
          "type": "uint256"
        }
      ],
      "payable": true,
      "stateMutability": "payable",
      "type": "function"
    },
    {
      "constant": false,
      "inputs": [
        {
          "name": "ticketId",
          "type": "uint256"
        },
        {
          "name": "eventId",
          "type": "uint256"
        }
      ],
      "name": "redeemTicket",
      "outputs": [],
      "payable": false,
      "stateMutability": "nonpayable",
      "type": "function"
    }
  ],
  "bytecode": "0x60806040526000805460a060020a60ff021916905534801561002057600080fd5b50604051602080610d3a833981016040525160008054600160a060020a0319908116331790915560018054600160a060020a0390931692909116919091179055610ccb8061006f6000396000f3006080604052600436106100a35763ffffffff7c01000000000000000000000000000000000000000000000000000000006000350416630b79143081146100a8578063191c87ab146101665780634b7aac941461018357806357a8e3fe1461019857806367dd74ca146101c9578063715018a6146101e65780638da5cb5b146101fb5780639e9580f614610210578063f2fde38b14610237578063fa8183b714610258575b600080fd5b3480156100b457600080fd5b506100c0600435610279565b604051808060200186815260200185815260200184815260200183600160a060020a0316600160a060020a03168152602001828103825287818151815260200191508051906020019080838360005b8381101561012757818101518382015260200161010f565b50505050905090810190601f1680156101545780820380516001836020036101000a031916815260200191505b50965050505050505060405180910390f35b34801561017257600080fd5b5061018160043560243561034c565b005b34801561018f57600080fd5b50610181610566565b3480156101a457600080fd5b506101ad6105c0565b60408051600160a060020a039092168252519081900360200190f35b6101d46004356105cf565b60408051918252519081900360200190f35b3480156101f257600080fd5b506101816108ee565b34801561020757600080fd5b506101ad61095a565b34801561021c57600080fd5b506101d4602460048035828101929101359035604435610969565b34801561024357600080fd5b50610181600160a060020a0360043516610afe565b34801561026457600080fd5b50610181600160a060020a0360043516610b21565b600280548290811061028757fe5b60009182526020918290206005919091020180546040805160026001841615610100026000190190931692909204601f8101859004850283018501909152808252919350918391908301828280156103205780601f106102f557610100808354040283529160200191610320565b820191906000526020600020905b81548152906001019060200180831161030357829003601f168201915b5050505060018301546002840154600385015460049095015493949193909250600160a060020a031685565b60008054819074010000000000000000000000000000000000000000900460ff16156103c75760408051600080516020610c80833981519152815260206004820152601d60248201527f436f6e747261637420697320696e20656d657267656e63792073746f70000000604482015290519081900360640190fd5b60028054849081106103d557fe5b60009182526020822060046005909202010154600160a060020a03169250821161044e5760408051600080516020610c80833981519152815260206004820152601860248201527f546865206576656e7420646f6573206e6f742065786973740000000000000000604482015290519081900360640190fd5b33600160a060020a038316146104d95760408051600080516020610c80833981519152815260206004820152602560248201527f53656e646572206d75737420626520746865206f776e6572206f66207468652060448201527f6576656e74000000000000000000000000000000000000000000000000000000606482015290519081900360840190fd5b50600154604080517f7cbc237300000000000000000000000000000000000000000000000000000000815260048101869052602481018590529051600160a060020a03909216918291637cbc237391604480830192600092919082900301818387803b15801561054857600080fd5b505af115801561055c573d6000803e3d6000fd5b5050505050505050565b600054600160a060020a0316331461057d57600080fd5b6000805474ff0000000000000000000000000000000000000000198116740100000000000000000000000000000000000000009182900460ff1615909102179055565b600154600160a060020a031681565b600080548190819074010000000000000000000000000000000000000000900460ff161561064c5760408051600080516020610c80833981519152815260206004820152601d60248201527f436f6e747261637420697320696e20656d657267656e63792073746f70000000604482015290519081900360640190fd5b600280548590811061065a57fe5b6000918252602090912060046005909202010154600160a060020a031615156106d25760408051600080516020610c80833981519152815260206004820152601360248201527f4576656e20646f6573206e6f7420657869737400000000000000000000000000604482015290519081900360640190fd5b60006002858154811015156106e357fe5b9060005260206000209060050201600301541115156107515760408051600080516020610c80833981519152815260206004820152601e60248201527f546865726520617265206e6f2072656d61696e696e67207469636b6574730000604482015290519081900360640190fd5b600280548590811061075f57fe5b906000526020600020906005020160010154341415156107f45760408051600080516020610c80833981519152815260206004820152602860248201527f5061796d656e7420646964206e6f74206d61746368206576656e74207469636b60448201527f6574207072696365000000000000000000000000000000000000000000000000606482015290519081900360840190fd5b600154604080517fcce7ec13000000000000000000000000000000000000000000000000000000008152336004820152602481018790529051600160a060020a039092169350839163cce7ec13916044808201926020929091908290030181600087803b15801561086457600080fd5b505af1158015610878573d6000803e3d6000fd5b505050506040513d602081101561088e57600080fd5b50516002805491925090859081106108a257fe5b6000918252602082206003600590920201018054600019019055604051339183917fdd35aa4612a263d23c45506e3ca4eaca39028f248fe8217d5a8f58367854ce089190a39392505050565b600054600160a060020a0316331461090557600080fd5b60008054604051600160a060020a03909116917ff8df31144d9c2f0f6b59d69b8b98abd5459d07f2742c4df920b25aae33c6482091a26000805473ffffffffffffffffffffffffffffffffffffffff19169055565b600054600160a060020a031681565b60008054819074010000000000000000000000000000000000000000900460ff16156109e45760408051600080516020610c80833981519152815260206004820152601d60248201527f436f6e747261637420697320696e20656d657267656e63792073746f70000000604482015290519081900360640190fd5b6040805160c06020601f8901819004028201810190925260a081018781526001926002929182918b908b9081908501838280828437505050928452505050602080820189905260408201889052606082018890523360809092019190915282546001810180855560009485529382902083518051600590930290910192610a7092849290910190610be4565b50602082015160018201556040808301516002830155606083015160038301556080909201516004909101805473ffffffffffffffffffffffffffffffffffffffff1916600160a060020a03909216919091179055519190039150339082907fe43349c008949cf6b65249356e6f918d4aaa0ca79f2b1166df4a4a98c9c16de290600090a395945050505050565b600054600160a060020a03163314610b1557600080fd5b610b1e81610b67565b50565b600054600160a060020a03163314610b3857600080fd5b6001805473ffffffffffffffffffffffffffffffffffffffff1916600160a060020a0392909216919091179055565b600160a060020a0381161515610b7c57600080fd5b60008054604051600160a060020a03808516939216917f8be0079c531659141344cd1fd0a4f28419497f9722a3daafe3b4186f6b6457e091a36000805473ffffffffffffffffffffffffffffffffffffffff1916600160a060020a0392909216919091179055565b828054600181600116156101000203166002900490600052602060002090601f016020900481019282601f10610c2557805160ff1916838001178555610c52565b82800160010185558215610c52579182015b82811115610c52578251825591602001919060010190610c37565b50610c5e929150610c62565b5090565b610c7c91905b80821115610c5e5760008155600101610c68565b90560008c379a000000000000000000000000000000000000000000000000000000000a165627a7a7230582080231ee8788c39891e1ba298f1b5c65a4f746f26d8dd3a6bbab5d137480f72f10029",
  "source": "pragma solidity ^0.4.24;\n\nimport \"openzeppelin-solidity/contracts/ownership/Ownable.sol\";\nimport \"./Ticket.sol\";\n\n/**\n * @title Event contract for creating/managing events\n */\ncontract Event is Ownable {\n\n    // For emergency stop\n    bool private stopped = false;\n    \n    // Address of the Ticket contract\n    address public ticketAddress;\n    \n    struct EventData {\n        // string name of the event\n        string name;\n        // face value price of tickets (in wei)\n        uint price;\n        // total number of tickets offered\n        uint totalTickets;\n        // number of tickets remaining\n        uint remainingTickets;\n        // owner address of the event\n        address owner;\n    }\n    \n    // All events\n    EventData[] public events;\n\n    /**\n     * @dev Called each time an event is created\n     */\n    event EventCreated(uint indexed eventId, address indexed creator);\n\n    /**\n     * @dev Called each time a new ticket is minted (bought directly from event)\n     */\n    event BoughtTicket(uint indexed ticketId, address indexed buyer);\n\n    /**\n     * @dev Called each time a ticket is redeemed\n     */\n    event RedeemedTicket(uint indexed ticketId);\n\n    // Modifiers for emergency stops\n    modifier stopInEmergency() {\n        require(!stopped, \"Contract is in emergency stop\");\n        _;\n    }\n    // There are no methods that can run during an emergency\n    \n    constructor(address _ticketAddress) public {\n        ticketAddress = _ticketAddress;\n    }\n\n    /**\n     * @dev Emergency stop to prevent creation of new events and buying tickets\n     */\n    function toggleEmergencyStop() public onlyOwner {\n        // You can add an additional modifier that restricts stopping a contract to be based on another action, such as a vote of users\n        stopped = !stopped;\n    }\n    \n    /**\n     * @dev Changes the address of the associated Ticket contract\n     * @param _ticketAddress address The new Ticket contract address\n     */\n    function updateTicketAddress(address _ticketAddress) external onlyOwner {\n        ticketAddress = _ticketAddress;\n    }\n    \n    /**\n     * @dev Creates a new event\n     * @param name string String name of event\n     * @param price uint Price in wei of the Tickets\n     * @param totalTickets Total number of tickets for this event\n     * @return uint ID of the newly created event\n     */\n    function createEvent(string name, uint price, uint totalTickets) external stopInEmergency returns (uint) {\n        uint id = events.push(EventData(name, price, totalTickets, totalTickets, msg.sender)) - 1;\n        emit EventCreated(id, msg.sender);\n        return id;\n    }\n    \n    /**\n     * @dev Buy a new ticket from event\n     * @param eventId uint ID of the event to buy a ticket from\n     * @return uint ID of the newly minted ticket\n     */\n    function buyTicket(uint eventId) external stopInEmergency payable returns (uint) {\n        // Event must exist\n        require(events[eventId].owner != 0, \"Even does not exist\");\n\n        // There must be tickets left\n        require(events[eventId].remainingTickets > 0, \"There are no remaining tickets\");\n        \n        // The payment must be exact to the price of the ticket\n        // This avoids the necessity for refunds (potential reentrancy) or\n        // for withrawal schemes.\n        require(msg.value == events[eventId].price, \"Payment did not match event ticket price\");\n        \n        // Mint a new ticket\n        Ticket ticketContract = Ticket(ticketAddress);\n        uint ticketId = ticketContract.buy(msg.sender, eventId);\n        \n        // Decrement tickets remaining\n        events[eventId].remainingTickets--;\n\n        emit BoughtTicket(ticketId, msg.sender);\n        \n        return ticketId;\n    }\n\n    /**\n    * @dev Redeems the ticket with given id. This would be called after the\n    * event organizer has checked isRedeemable() on the ticket.\n    * @param ticketId uint ID of the ticket to redeem\n    * @param eventId uint ID of the event the ticket belongs to\n    */\n    function redeemTicket(uint ticketId, uint eventId) external stopInEmergency {\n        // The event must exist\n        address owner = events[eventId].owner;\n        require(owner > 0, \"The event does not exist\");\n\n        // The caller must be the owner of the event\n        require(msg.sender == owner, \"Sender must be the owner of the event\");\n\n        Ticket ticketContract = Ticket(ticketAddress);\n\n        // Validation that the ticket belongs to the event happens in Ticket contract\n        ticketContract.redeem(ticketId, eventId);\n    }\n}",
  "sourcePath": "/Users/goodmc4/Sites/ConsensysProject/contracts/Event.sol",
  "compiler": {
    "name": "solc",
    "version": "0.4.24+commit.e67f0147.Emscripten.clang"
  },
  "schemaVersion": "2.0.0",
  "updatedAt": "2018-08-23T22:55:06.219Z"
}