{
  "contractName": "Ticket",
  "abi": [
    {
      "constant": true,
      "inputs": [
        {
          "name": "_tokenId",
          "type": "uint256"
        }
      ],
      "name": "getApproved",
      "outputs": [
        {
          "name": "",
          "type": "address"
        }
      ],
      "payable": false,
      "stateMutability": "view",
      "type": "function"
    },
    {
      "constant": false,
      "inputs": [
        {
          "name": "_to",
          "type": "address"
        },
        {
          "name": "_tokenId",
          "type": "uint256"
        }
      ],
      "name": "approve",
      "outputs": [],
      "payable": false,
      "stateMutability": "nonpayable",
      "type": "function"
    },
    {
      "constant": false,
      "inputs": [
        {
          "name": "_from",
          "type": "address"
        },
        {
          "name": "_to",
          "type": "address"
        },
        {
          "name": "_tokenId",
          "type": "uint256"
        }
      ],
      "name": "transferFrom",
      "outputs": [],
      "payable": false,
      "stateMutability": "nonpayable",
      "type": "function"
    },
    {
      "constant": false,
      "inputs": [
        {
          "name": "_from",
          "type": "address"
        },
        {
          "name": "_to",
          "type": "address"
        },
        {
          "name": "_tokenId",
          "type": "uint256"
        }
      ],
      "name": "safeTransferFrom",
      "outputs": [],
      "payable": false,
      "stateMutability": "nonpayable",
      "type": "function"
    },
    {
      "constant": true,
      "inputs": [
        {
          "name": "_tokenId",
          "type": "uint256"
        }
      ],
      "name": "exists",
      "outputs": [
        {
          "name": "",
          "type": "bool"
        }
      ],
      "payable": false,
      "stateMutability": "view",
      "type": "function"
    },
    {
      "constant": true,
      "inputs": [
        {
          "name": "",
          "type": "uint256"
        }
      ],
      "name": "tickets",
      "outputs": [
        {
          "name": "eventId",
          "type": "uint256"
        },
        {
          "name": "redeemed",
          "type": "bool"
        }
      ],
      "payable": false,
      "stateMutability": "view",
      "type": "function"
    },
    {
      "constant": true,
      "inputs": [
        {
          "name": "_tokenId",
          "type": "uint256"
        }
      ],
      "name": "ownerOf",
      "outputs": [
        {
          "name": "",
          "type": "address"
        }
      ],
      "payable": false,
      "stateMutability": "view",
      "type": "function"
    },
    {
      "constant": true,
      "inputs": [
        {
          "name": "_owner",
          "type": "address"
        }
      ],
      "name": "balanceOf",
      "outputs": [
        {
          "name": "",
          "type": "uint256"
        }
      ],
      "payable": false,
      "stateMutability": "view",
      "type": "function"
    },
    {
      "constant": false,
      "inputs": [],
      "name": "renounceOwnership",
      "outputs": [],
      "payable": false,
      "stateMutability": "nonpayable",
      "type": "function"
    },
    {
      "constant": true,
      "inputs": [],
      "name": "owner",
      "outputs": [
        {
          "name": "",
          "type": "address"
        }
      ],
      "payable": false,
      "stateMutability": "view",
      "type": "function"
    },
    {
      "constant": false,
      "inputs": [
        {
          "name": "_to",
          "type": "address"
        },
        {
          "name": "_approved",
          "type": "bool"
        }
      ],
      "name": "setApprovalForAll",
      "outputs": [],
      "payable": false,
      "stateMutability": "nonpayable",
      "type": "function"
    },
    {
      "constant": false,
      "inputs": [
        {
          "name": "_from",
          "type": "address"
        },
        {
          "name": "_to",
          "type": "address"
        },
        {
          "name": "_tokenId",
          "type": "uint256"
        },
        {
          "name": "_data",
          "type": "bytes"
        }
      ],
      "name": "safeTransferFrom",
      "outputs": [],
      "payable": false,
      "stateMutability": "nonpayable",
      "type": "function"
    },
    {
      "constant": true,
      "inputs": [
        {
          "name": "_owner",
          "type": "address"
        },
        {
          "name": "_operator",
          "type": "address"
        }
      ],
      "name": "isApprovedForAll",
      "outputs": [
        {
          "name": "",
          "type": "bool"
        }
      ],
      "payable": false,
      "stateMutability": "view",
      "type": "function"
    },
    {
      "constant": false,
      "inputs": [
        {
          "name": "_newOwner",
          "type": "address"
        }
      ],
      "name": "transferOwnership",
      "outputs": [],
      "payable": false,
      "stateMutability": "nonpayable",
      "type": "function"
    },
    {
      "constant": true,
      "inputs": [],
      "name": "eventAddress",
      "outputs": [
        {
          "name": "",
          "type": "address"
        }
      ],
      "payable": false,
      "stateMutability": "view",
      "type": "function"
    },
    {
      "inputs": [
        {
          "name": "_eventAddress",
          "type": "address"
        }
      ],
      "payable": false,
      "stateMutability": "nonpayable",
      "type": "constructor"
    },
    {
      "anonymous": false,
      "inputs": [
        {
          "indexed": true,
          "name": "_from",
          "type": "address"
        },
        {
          "indexed": true,
          "name": "_to",
          "type": "address"
        },
        {
          "indexed": false,
          "name": "_tokenId",
          "type": "uint256"
        }
      ],
      "name": "Transfer",
      "type": "event"
    },
    {
      "anonymous": false,
      "inputs": [
        {
          "indexed": true,
          "name": "_owner",
          "type": "address"
        },
        {
          "indexed": true,
          "name": "_approved",
          "type": "address"
        },
        {
          "indexed": false,
          "name": "_tokenId",
          "type": "uint256"
        }
      ],
      "name": "Approval",
      "type": "event"
    },
    {
      "anonymous": false,
      "inputs": [
        {
          "indexed": true,
          "name": "_owner",
          "type": "address"
        },
        {
          "indexed": true,
          "name": "_operator",
          "type": "address"
        },
        {
          "indexed": false,
          "name": "_approved",
          "type": "bool"
        }
      ],
      "name": "ApprovalForAll",
      "type": "event"
    },
    {
      "anonymous": false,
      "inputs": [
        {
          "indexed": true,
          "name": "previousOwner",
          "type": "address"
        }
      ],
      "name": "OwnershipRenounced",
      "type": "event"
    },
    {
      "anonymous": false,
      "inputs": [
        {
          "indexed": true,
          "name": "previousOwner",
          "type": "address"
        },
        {
          "indexed": true,
          "name": "newOwner",
          "type": "address"
        }
      ],
      "name": "OwnershipTransferred",
      "type": "event"
    },
    {
      "constant": false,
      "inputs": [
        {
          "name": "_eventAddress",
          "type": "address"
        }
      ],
      "name": "updateEventAddress",
      "outputs": [],
      "payable": false,
      "stateMutability": "nonpayable",
      "type": "function"
    },
    {
      "constant": true,
      "inputs": [
        {
          "name": "eventId",
          "type": "uint256"
        },
        {
          "name": "ticketId",
          "type": "uint256"
        },
        {
          "name": "msgHash",
          "type": "bytes32"
        },
        {
          "name": "v",
          "type": "uint8"
        },
        {
          "name": "r",
          "type": "bytes32"
        },
        {
          "name": "s",
          "type": "bytes32"
        }
      ],
      "name": "isValid",
      "outputs": [
        {
          "name": "",
          "type": "uint8"
        }
      ],
      "payable": false,
      "stateMutability": "view",
      "type": "function"
    },
    {
      "constant": true,
      "inputs": [
        {
          "name": "eventId",
          "type": "uint256"
        },
        {
          "name": "ticketId",
          "type": "uint256"
        },
        {
          "name": "msgHash",
          "type": "bytes32"
        },
        {
          "name": "v",
          "type": "uint8"
        },
        {
          "name": "r",
          "type": "bytes32"
        },
        {
          "name": "s",
          "type": "bytes32"
        }
      ],
      "name": "isRedeemable",
      "outputs": [
        {
          "name": "",
          "type": "uint8"
        }
      ],
      "payable": false,
      "stateMutability": "view",
      "type": "function"
    },
    {
      "constant": false,
      "inputs": [
        {
          "name": "ticketId",
          "type": "uint256"
        },
        {
          "name": "eventId",
          "type": "uint256"
        }
      ],
      "name": "redeem",
      "outputs": [],
      "payable": false,
      "stateMutability": "nonpayable",
      "type": "function"
    },
    {
      "constant": false,
      "inputs": [
        {
          "name": "buyer",
          "type": "address"
        },
        {
          "name": "eventId",
          "type": "uint256"
        }
      ],
      "name": "buy",
      "outputs": [
        {
          "name": "",
          "type": "uint256"
        }
      ],
      "payable": false,
      "stateMutability": "nonpayable",
      "type": "function"
    },
    {
      "constant": true,
      "inputs": [
        {
          "name": "_owner",
          "type": "address"
        }
      ],
      "name": "tokenOfOwner",
      "outputs": [
        {
          "name": "",
          "type": "uint256[]"
        }
      ],
      "payable": false,
      "stateMutability": "view",
      "type": "function"
    },
    {
      "constant": true,
      "inputs": [
        {
          "name": "_owner",
          "type": "address"
        },
        {
          "name": "_index",
          "type": "uint256"
        }
      ],
      "name": "tokenOfOwnerByIndex",
      "outputs": [
        {
          "name": "",
          "type": "uint256"
        }
      ],
      "payable": false,
      "stateMutability": "view",
      "type": "function"
    }
  ],
  "bytecode": "0x608060405234801561001057600080fd5b50604051602080611704833981016040525160008054600160a060020a0319908116331790915560058054600160a060020a03909316929091169190911790556116a58061005f6000396000f3006080604052600436106101275763ffffffff7c0100000000000000000000000000000000000000000000000000000000600035041663081812fc811461012c578063095ea7b31461016057806323b872dd14610186578063294cdf0d146101b05780632f745c591461022157806339c91bc71461025757806342842e0e146102975780634e027344146102c15780634f558e79146102e257806350b447121461030e5780636352211e1461033f57806370a0823114610357578063715018a6146103785780637cbc23731461038d5780638da5cb5b146103a8578063a22cb465146103bd578063b88d4fde146103e3578063cce7ec1314610452578063d0d3f6f114610476578063e985e9c5146104a0578063f2fde38b146104c7578063fad56779146104e8575b600080fd5b34801561013857600080fd5b506101446004356104fd565b60408051600160a060020a039092168252519081900360200190f35b34801561016c57600080fd5b50610184600160a060020a0360043516602435610518565b005b34801561019257600080fd5b50610184600160a060020a036004358116906024351660443561060a565b3480156101bc57600080fd5b506101d1600160a060020a03600435166106b9565b60408051602080825283518183015283519192839290830191858101910280838360005b8381101561020d5781810151838201526020016101f5565b505050509050019250505060405180910390f35b34801561022d57600080fd5b50610245600160a060020a0360043516602435610725565b60408051918252519081900360200190f35b34801561026357600080fd5b5061028160043560243560443560ff6064351660843560a4356107fa565b6040805160ff9092168252519081900360200190f35b3480156102a357600080fd5b50610184600160a060020a036004358116906024351660443561085b565b3480156102cd57600080fd5b50610184600160a060020a0360043516610893565b3480156102ee57600080fd5b506102fa6004356108d9565b604080519115158252519081900360200190f35b34801561031a57600080fd5b506103266004356108f6565b6040805192835290151560208301528051918290030190f35b34801561034b57600080fd5b50610144600435610925565b34801561036357600080fd5b50610245600160a060020a036004351661094f565b34801561038457600080fd5b50610184610982565b34801561039957600080fd5b506101846004356024356109ee565b3480156103b457600080fd5b50610144610bc1565b3480156103c957600080fd5b50610184600160a060020a03600435166024351515610bd0565b3480156103ef57600080fd5b50604080516020601f60643560048181013592830184900484028501840190955281845261018494600160a060020a038135811695602480359092169560443595369560849401918190840183828082843750949750610c549650505050505050565b34801561045e57600080fd5b50610245600160a060020a0360043516602435610c93565b34801561048257600080fd5b5061028160043560243560443560ff6064351660843560a435610da9565b3480156104ac57600080fd5b506102fa600160a060020a0360043581169060243516610e32565b3480156104d357600080fd5b50610184600160a060020a0360043516610e60565b3480156104f457600080fd5b50610144610e83565b600090815260026020526040902054600160a060020a031690565b600061052382610925565b9050600160a060020a03838116908216141561053e57600080fd5b33600160a060020a038216148061055a575061055a8133610e32565b151561056557600080fd5b6000610570836104fd565b600160a060020a031614158061058e5750600160a060020a03831615155b1561060557600082815260026020908152604091829020805473ffffffffffffffffffffffffffffffffffffffff1916600160a060020a03878116918217909255835186815293519093918516927f8c5be1e5ebec7d5bd14f71427d1e84f3dd0314c0f7b2291e5b200ac8c7c3b925928290030190a35b505050565b806106153382610e92565b151561062057600080fd5b600160a060020a038416151561063557600080fd5b600160a060020a038316151561064a57600080fd5b6106548483610ef1565b61065e8483610f9f565b61066883836110d8565b82600160a060020a031684600160a060020a03167fddf252ad1be2c89b69c2b068fc378daa952ba7f163c4a11628f55a4df523b3ef846040518082815260200191505060405180910390a350505050565b600160a060020a03811660009081526007602090815260409182902080548351818402810184019094528084526060939283018282801561071957602002820191906000526020600020905b815481526020019060010190808311610705575b50505050509050919050565b60006107308361094f565b82106107c357604080517f08c379a000000000000000000000000000000000000000000000000000000000815260206004820152602b60248201527f546f6b656e20696e646578206f7574206f66206f776e65727320746f6b656e2060448201527f6c69737420626f756e6473000000000000000000000000000000000000000000606482015290519081900360840190fd5b600160a060020a03831660009081526007602052604090208054839081106107e757fe5b9060005260206000200154905092915050565b600654600090861061080e57506002610851565b600680548790811061081c57fe5b600091825260209091206001600290920201015460ff161561084057506001610851565b61084e878787878787610da9565b90505b9695505050505050565b806108663382610e92565b151561087157600080fd5b61088d8484846020604051908101604052806000815250610c54565b50505050565b600054600160a060020a031633146108aa57600080fd5b6005805473ffffffffffffffffffffffffffffffffffffffff1916600160a060020a0392909216919091179055565b600090815260016020526040902054600160a060020a0316151590565b600680548290811061090457fe5b60009182526020909120600290910201805460019091015490915060ff1682565b600081815260016020526040812054600160a060020a031680151561094957600080fd5b92915050565b6000600160a060020a038216151561096657600080fd5b50600160a060020a031660009081526003602052604090205490565b600054600160a060020a0316331461099957600080fd5b60008054604051600160a060020a03909116917ff8df31144d9c2f0f6b59d69b8b98abd5459d07f2742c4df920b25aae33c6482091a26000805473ffffffffffffffffffffffffffffffffffffffff19169055565b600554600160a060020a03163314610a6757604080517f08c379a000000000000000000000000000000000000000000000000000000000815260206004820152601d60248201527f53656e646572206d757374206265204576656e7420636f6e7472616374000000604482015290519081900360640190fd5b6006548210610ad757604080517f08c379a000000000000000000000000000000000000000000000000000000000815260206004820152601560248201527f5469636b657420646f6573206e6f742065786973740000000000000000000000604482015290519081900360640190fd5b80600683815481101515610ae757fe5b600091825260209091206002909102015414610b8a57604080517f08c379a000000000000000000000000000000000000000000000000000000000815260206004820152602360248201527f5469636b657420646f6573206e6f742062656c6f6e6720746f2074686520657660448201527f656e740000000000000000000000000000000000000000000000000000000000606482015290519081900360840190fd5b6001600683815481101515610b9b57fe5b60009182526020909120600290910201600101805460ff19169115159190911790555050565b600054600160a060020a031681565b600160a060020a038216331415610be657600080fd5b336000818152600460209081526040808320600160a060020a03871680855290835292819020805460ff1916861515908117909155815190815290519293927f17307eab39ab6107e8899845ad3d59bd9653f200f220920489ca2b5937696c31929181900390910190a35050565b81610c5f3382610e92565b1515610c6a57600080fd5b610c7585858561060a565b610c8185858585611121565b1515610c8c57600080fd5b5050505050565b6005546000908190600160a060020a03163314610d1157604080517f08c379a000000000000000000000000000000000000000000000000000000000815260206004820152601d60248201527f53656e646572206d757374206265204576656e7420636f6e7472616374000000604482015290519081900360640190fd5b506040805180820190915282815260006020820181815260068054600181018255925291517ff652222313e28459528d920b65115c16c04f3efc82aaedc97be59f3f377c0d3f600283029081019190915591517ff652222313e28459528d920b65115c16c04f3efc82aaedc97be59f3f377c0d40909201805460ff191692151592909217909155610da284826112aa565b9392505050565b6006546000908610610dbd57506002610851565b600086815260016020526040902054600160a060020a0316610de18686868661130e565b600160a060020a031614610df757506003610851565b86600687815481101515610e0757fe5b600091825260209091206002909102015414610e2557506004610851565b5060059695505050505050565b600160a060020a03918216600090815260046020908152604080832093909416825291909152205460ff1690565b600054600160a060020a03163314610e7757600080fd5b610e808161146f565b50565b600554600160a060020a031681565b600080610e9e83610925565b905080600160a060020a031684600160a060020a03161480610ed9575083600160a060020a0316610ece846104fd565b600160a060020a0316145b80610ee95750610ee98185610e32565b949350505050565b81600160a060020a0316610f0482610925565b600160a060020a031614610f1757600080fd5b600081815260026020526040902054600160a060020a031615610f9b576000818152600260209081526040808320805473ffffffffffffffffffffffffffffffffffffffff1916905580518481529051600160a060020a038616927f8c5be1e5ebec7d5bd14f71427d1e84f3dd0314c0f7b2291e5b200ac8c7c3b925928290030190a35b5050565b6000806000610fae85856114ec565b600084815260086020908152604080832054600160a060020a0389168452600790925290912054909350610fe990600163ffffffff61158216565b600160a060020a03861660009081526007602052604090208054919350908390811061101157fe5b90600052602060002001549050806007600087600160a060020a0316600160a060020a031681526020019081526020016000208481548110151561105157fe5b6000918252602080832090910192909255600160a060020a038716815260079091526040812080548490811061108357fe5b6000918252602080832090910192909255600160a060020a03871681526007909152604090208054906110ba906000198301611639565b50600093845260086020526040808520859055908452909220555050565b60006110e48383611594565b50600160a060020a039091166000908152600760209081526040808320805460018101825590845282842081018590559383526008909152902055565b60008061113685600160a060020a0316611624565b151561114557600191506112a1565b84600160a060020a031663f0b9e5ba8786866040518463ffffffff167c01000000000000000000000000000000000000000000000000000000000281526004018084600160a060020a0316600160a060020a0316815260200183815260200180602001828103825283818151815260200191508051906020019080838360005b838110156111dd5781810151838201526020016111c5565b50505050905090810190601f16801561120a5780820380516001836020036101000a031916815260200191505b50945050505050602060405180830381600087803b15801561122b57600080fd5b505af115801561123f573d6000803e3d6000fd5b505050506040513d602081101561125557600080fd5b50517fffffffff0000000000000000000000000000000000000000000000000000000081167ff0b9e5ba0000000000000000000000000000000000000000000000000000000014925090505b50949350505050565b600160a060020a03821615156112bf57600080fd5b6112c982826110d8565b604080518281529051600160a060020a038416916000917fddf252ad1be2c89b69c2b068fc378daa952ba7f163c4a11628f55a4df523b3ef9181900360200190a35050565b604080518082018252601c8082527f19457468657265756d205369676e6564204d6573736167653a0a33320000000060208084019182529351600094859385938b939092019182918083835b602083106113795780518252601f19909201916020918201910161135a565b51815160209384036101000a600019018019909216911617905292019384525060408051808503815293820190819052835193945092839250908401908083835b602083106113d95780518252601f1990920191602091820191016113ba565b51815160209384036101000a600019018019909216911617905260408051929094018290038220600080845283830180875282905260ff8e1684870152606084018d9052608084018c905294519097506001965060a080840196509194601f19820194509281900390910191865af1158015611459573d6000803e3d6000fd5b5050604051601f19015198975050505050505050565b600160a060020a038116151561148457600080fd5b60008054604051600160a060020a03808516939216917f8be0079c531659141344cd1fd0a4f28419497f9722a3daafe3b4186f6b6457e091a36000805473ffffffffffffffffffffffffffffffffffffffff1916600160a060020a0392909216919091179055565b81600160a060020a03166114ff82610925565b600160a060020a03161461151257600080fd5b600160a060020a03821660009081526003602052604090205461153c90600163ffffffff61158216565b600160a060020a03909216600090815260036020908152604080832094909455918152600190915220805473ffffffffffffffffffffffffffffffffffffffff19169055565b60008282111561158e57fe5b50900390565b600081815260016020526040902054600160a060020a0316156115b657600080fd5b6000818152600160208181526040808420805473ffffffffffffffffffffffffffffffffffffffff1916600160a060020a03881690811790915584526003909152909120546116049161162c565b600160a060020a0390921660009081526003602052604090209190915550565b6000903b1190565b8181018281101561094957fe5b8154818355818111156106055760008381526020902061060591810190830161167691905b80821115611672576000815560010161165e565b5090565b905600a165627a7a723058208d9760bc27788a6e29aaa283ff43f37fd4f7bc66506efafb8ea9bc817a1c99890029",
  "source": "pragma solidity ^0.4.24;\n\nimport \"openzeppelin-solidity/contracts/ownership/Ownable.sol\";\nimport \"openzeppelin-solidity/contracts/token/ERC721/ERC721BasicToken.sol\";\n\n/**\n * @title Ticket implementation using ERC721 standard plus additions\n * @dev Tickets are ERC721 with additional information and transfer restrictions\n */\ncontract Ticket is Ownable, ERC721BasicToken {\n    \n    // Address of the Event contract, which has permission to mint tickets\n    address public eventAddress;\n    \n    // Ticket-specific information tied to underlying ERC721\n    struct TicketData {\n        uint256 eventId;\n        bool redeemed;\n    }\n    \n    // All tickets. IDs are simply the index\n    // Essentially a mapping uint256 => TicketData\n    TicketData[] public tickets;\n\n    // Mapping from owner to list of owned token IDs\n    mapping(address => uint256[]) internal ownedTokens;\n\n    // Mapping from token ID to index of the owner tokens list\n    mapping(uint256 => uint256) internal ownedTokensIndex;\n    \n    /**\n     * @dev Throws if called by any account other than the Event contract.\n     */\n    modifier onlyEventContract() {\n        require(msg.sender == eventAddress, \"Sender must be Event contract\");\n        _;\n    }\n    \n    constructor(address _eventAddress) public {\n        eventAddress = _eventAddress;\n    }\n    \n    /**\n     * @dev Changes the address of the associated Event contract\n     * @param _eventAddress address The new Event contract address\n     */\n    function updateEventAddress(address _eventAddress) external onlyOwner {\n        eventAddress = _eventAddress;\n    }\n    \n    /**\n     * @dev Validates a ticket as being owned by an address and that the ticket\n     * is valid for the provided event ID. The event host will give the attendee\n     * a one-time code. The attendee will provide their ticket ID and a signature\n     * of the sha3(ticket ID + one-time code). From this the event host can determine\n     * at time-of-entry that the attendee is the owner of a valid ticket.\n     * @param eventId uint256\n     * @param ticketId uint256\n     * @param msgHash bytes32 Hash of the ticketId + event one-time code\n     * @param v uint8 v of signature of msgHash\n     * @param r bytes32 r of signature of msgHash\n     * @param s bytes32 s of signature of msgHash\n     * @return uint8 an integer representing the result.\n     * 2 = ticket does not exist\n     * 3 = signature does not match the owner of the ticket\n     * 4 = ticket does not belong to the event\n     * 5 = valid ticket\n     */\n    function isValid(\n        uint256 eventId,\n        uint256 ticketId,\n        bytes32 msgHash,\n        uint8 v,\n        bytes32 r,\n        bytes32 s\n    ) public view returns (uint8) {\n        // Ticket must exist; this is easy since ticket IDs are just array indices\n        if (ticketId >= tickets.length) return 2;\n\n        // The provided signature must be from the address that owns the ticket\n        if (recovery(msgHash, v, r, s) != tokenOwner[ticketId]) return 3;\n        \n        // The ticket must belong to the Event\n        if (tickets[ticketId].eventId != eventId) return 4;\n        \n        return 5;\n    }\n\n    /**\n     * @dev Validates a ticket as being owned by an address and that the ticket\n     * is valid for the provided event ID as well as being unredeemed. An extra\n     * check over isValid.\n     * @param eventId uint256\n     * @param ticketId uint256\n     * @param msgHash bytes32 Hash of the ticketId+attendee\n     * @param v uint8 v of signature of msgHash\n     * @param r bytes32 r of signature of msgHash\n     * @param s bytes32 s of signature of msgHash\n     * @return uint8 an integer representing the result.\n     * 1 = ticket already redeemed\n     * 2 = ticket does not exist\n     * 3 = signature does not match the owner of the ticket\n     * 4 = ticket does not belong to the event\n     * 5 = valid ticket\n     */\n    function isRedeemable(\n        uint256 eventId,\n        uint256 ticketId,\n        bytes32 msgHash,\n        uint8 v,\n        bytes32 r,\n        bytes32 s\n    ) public view returns (uint8) {\n        // this repeats a check from isValid, but is necessary to make sure the next check doesn't fail\n        // if the provided ticketId doesn't exist\n        if (ticketId >= tickets.length) return 2;\n        \n        if (tickets[ticketId].redeemed) return 1;\n\n        return isValid(eventId, ticketId, msgHash, v, r, s);\n    }\n\n    /**\n    * @dev Validates a signed message hash with given v, r, c for ecrecover\n    * @param msgHash bytes32 Hash of a message\n    * @param v uint8 v of signature of msgHash\n    * @param r bytes32 r of signature of msgHash\n    * @param s bytes32 s of signature of msgHash\n    */\n    function recovery(bytes32 msgHash, uint8 v, bytes32 r, bytes32 s) private pure returns (address) {\n        bytes memory prefix = \"\\x19Ethereum Signed Message:\\n32\";\n        bytes32 prefixedHash = keccak256(abi.encodePacked(prefix, msgHash));\n        return ecrecover(prefixedHash, v, r, s);\n    }\n\n    /**\n     * @dev Redeems a ticket by ID. Only callable by Event contract where auth takes place\n     * @param ticketId uint256 The ID of the ticket to redeem\n     */\n    function redeem(uint256 ticketId, uint256 eventId) external onlyEventContract {\n        require (ticketId < tickets.length, \"Ticket does not exist\");\n        require (tickets[ticketId].eventId == eventId, \"Ticket does not belong to the event\");\n\n        tickets[ticketId].redeemed = true;\n    }\n    \n    /**\n     * @dev Buys a new ticket from event. Only callable by Event contract\n     * @param buyer address The address the new ticket will be owned by\n     * @param eventId uint256 The event the ticket is being bought from\n     */\n    function buy(address buyer, uint256 eventId) external onlyEventContract returns (uint256) {\n        uint256 id = tickets.push(TicketData(eventId, false)) - 1;\n        _mint(buyer, id);\n        \n        return id;\n    }\n\n    /**\n     * @dev Gets the tokens of requested owner\n     * @param _owner address owning the tokens list to be accessed\n     * @return uint256[] array of token IDs owned by the requested address\n     */\n    function tokenOfOwner(address _owner)\n        public\n        view\n        returns (uint256[])\n    {\n        return ownedTokens[_owner];\n    }\n\n    /**\n     * The following implementation is taken from ERC721Token.sol\n     * Did not want to have all the functionality of the full spec token\n     * But needed the owned tokens list functionality\n     */\n\n    /**\n     * @dev Gets the token ID at a given index of the tokens list of the requested owner\n     * @param _owner address owning the tokens list to be accessed\n     * @param _index uint256 representing the index to be accessed of the requested tokens list\n     * @return uint256 token ID at the given index of the tokens list owned by the requested address\n     */\n    function tokenOfOwnerByIndex(address _owner, uint256 _index)\n        public\n        view\n        returns (uint256)\n    {\n        require(_index < balanceOf(_owner), \"Token index out of owners token list bounds\");\n        return ownedTokens[_owner][_index];\n    }\n\n    /**\n     * @dev Internal function to add a token ID to the list of a given address\n     * @param _to address representing the new owner of the given token ID\n     * @param _tokenId uint256 ID of the token to be added to the tokens list of the given address\n     */\n    function addTokenTo(address _to, uint256 _tokenId) internal {\n        super.addTokenTo(_to, _tokenId);\n        uint256 length = ownedTokens[_to].length;\n        ownedTokens[_to].push(_tokenId);\n        ownedTokensIndex[_tokenId] = length;\n    }\n\n    /**\n     * @dev Internal function to remove a token ID from the list of a given address\n     * @param _from address representing the previous owner of the given token ID\n     * @param _tokenId uint256 ID of the token to be removed from the tokens list of the given address\n     */\n    function removeTokenFrom(address _from, uint256 _tokenId) internal {\n        super.removeTokenFrom(_from, _tokenId);\n\n        uint256 tokenIndex = ownedTokensIndex[_tokenId];\n        uint256 lastTokenIndex = ownedTokens[_from].length.sub(1);\n        uint256 lastToken = ownedTokens[_from][lastTokenIndex];\n\n        ownedTokens[_from][tokenIndex] = lastToken;\n        ownedTokens[_from][lastTokenIndex] = 0;\n        // Note that this will handle single-element arrays. In that case, both tokenIndex and lastTokenIndex are going to\n        // be zero. Then we can make sure that we will remove _tokenId from the ownedTokens list since we are first swapping\n        // the lastToken to the first position, and then dropping the element placed in the last position of the list\n\n        ownedTokens[_from].length--;\n        ownedTokensIndex[_tokenId] = 0;\n        ownedTokensIndex[lastToken] = tokenIndex;\n    }\n}",
  "sourcePath": "/Users/goodmc4/Sites/ConsensysProject/contracts/Ticket.sol",
  "compiler": {
    "name": "solc",
    "version": "0.4.24+commit.e67f0147.Emscripten.clang"
  },
  "schemaVersion": "2.0.0",
  "updatedAt": "2018-08-17T19:41:37.419Z"
}